23:49:32.514092 IP ubuntu-s-1vcpu-1gb-tor1-01.ssh > 172.98.155.190.61291: Flags [.], ack 505, win 320, length 0
        0x0000:  fe00 0000 0101 d208 959a 0f68 0800 4510  ...........h..E.
        0x0010:  0028 013f 4000 4006 3de5 9fcb 13b0 ac62  .(.?@.@.=......b
        0x0020:  9bbe 0016 ef6b bbf6 e529 bddc 4d0a 5010  .....k...)..M.P.
        0x0030:  0140 fbb6 0000                           .@....
^C
379 packets captured
810 packets received by filter
431 packets dropped by kernel
